:020000040800F2
:10000000000002201D3200087D0400087F04000863
:100010008104000883040008850400080000000033
:10002000000000000000000000000000512F000848
:100030008704000800000000F12F0008DB2A0008F8
:100040006D3200086D3200086D3200086D32000814
:100050006D3200086D3200086D3200086D32000804
:100060006D3200086D3200086D3200086D320008F4
:100070006D3200086D3200086D3200086D320008E4
:100080006D3200086D3200086D3200086D320008D4
:100090006D3200086D3200086D3200086D320008C4
:1000A0006D3200086D3200086D3200086D320008B4
:1000B0006D3200086D3200086D3200086D320008A4
:1000C0006D3200086D3200086D3200086D32000894
:1000D0006D3200086D3200086D3200086D32000884
:1000E0006D3200086D3200086D3200086D32000874
:1000F0006D3200086D3200086D3200086D32000864
:100100006D3200086D3200086D3200086D32000853
:100110006D3200086D320008890400086D32000855
:100120006D3200086D3200086D3200086D32000833
:100130006D32000800000000000000006D32000871
:100140006D3200086D3200086D3200086D32000813
:100150006D3200086D3200086D3200086D32000803
:100160006D3200086D3200086D3200086D320008F3
:100170006D3200086D3200086D320008000000008A
:10018000000000006D3200080000000000000000C8
:100190006D32000800000000000000006D32000811
:1001A0000000000000000000000000006D320008A8
:1001B0006D3200086D3200086D3200086D320008A3
:0401C0006D32000894
:1001D00053B94AB9002908BF00281CBF4FF0FF31AE
:1001E0004FF0FF3000F00CB8ADF1080C6DE904CE13
:1001F00003F078F8DDF804E0DDE9022304B070478D
:10020000704700BF0348044B834202D0034B03B145
:100210001847704710000020100000200000000068
:100220000548064B1B1AD90F01EBA301491002D058
:10023000034B03B118477047100000201000002046
:100240000000000010B5064C237843B9FFF7DAFF31
:10025000044B13B10448AFF300800123237010BD99
:100260001000002000000000A035000808B5054B74
:100270001BB105490548AFF30080BDE80840FFF712
:10028000CFBF00BF0000000014000020A035000810
:1002900030B58BB000240594069407940894099413
:1002A0000194224B1A6B42F004021A631A6B02F09B
:1002B00004020192019A02941A6B42F080021A63BE
:1002C0001A6B02F080020292029A03941A6B42F0B7
:1002D00001021A631A6B02F001020392039A04945A
:1002E0001A6B42F002021A631B6B03F002030493C1
:1002F000049B0F4D22462021284600F0D7FF4FF4E3
:10030000005305934FF404130693079405A9094875
:1003100000F0DCFE20230593012306930794089444
:1003200005A9284600F0D2FE0BB030BD00380240CF
:10033000000002400008024008B52021034800F0F8
:10034000BBFF4FF4FA7002F061FCF6E700000240D8
:1003500008B50268034B9A4200D008BD01F038F896
:10036000FBE700BF0010004072B6FEE708B50A4880
:100370000A4B03604FF4E133436000238360C360A2
:1003800003610C2242618361C36101F0BBF800B9D3
:1003900008BDFFF7E9FF00BF300000200044004027
:1003A00000B595B03422002107A802F093FF002386
:1003B0000293039304930593069300931F4A116CD1
:1003C00041F080511164126C02F080520092009A48
:1003D00001931B490A6822F4404242F480420A60B9
:1003E0000A6802F440420192019A02220792012116
:1003F0000A9110210B910D920E930F914FF4A87357
:100400001093042311931292139207A800F03CFC5E
:1004100080B90F23029302210391002304934FF428
:1004200080520592069302A800F072FA20B915B026
:100430005DF804FBFFF798FFFFF796FF00380240D6
:100440000070004008B500F0A9FFFFF7A9FFFFF713
:100450001FFFFFF78BFF02F04DFB054A0021054807
:1004600002F076FB044B186002F056FBFEE700BF7B
:10047000C4350008390300082C000020FEE7FEE721
:10048000FEE7FEE7FEE7704708B5024800F0FAF81D
:1004900008BD00BF7800002000B583B000220092A4
:1004A0000D4B596C41F480415964596C01F4804101
:1004B000009100990192196C41F0805119641B6CF4
:1004C00003F080530193019B0F216FF0010000F0B6
:1004D00051FF03B05DF804FB0038024000B589B05D
:1004E0000023039304930593069307930268154B27
:1004F0009A4202D009B05DF804FB0021019103F596
:10050000FA331A6C42F400321A641A6C02F40032A4
:100510000192019A02911A6B42F001021A631B6B5D
:1005200003F001030293029B0C2303930223049321
:10053000032306930723079303A9034800F0C6FD8E
:10054000D8E700BF004400400000024030B589B049
:10055000044600230193214B1A6C42F010021A64E6
:100560001B6C03F010030193019B02A903A800F088
:10057000A5FA069BCBB900F081FA0346184AA2FB04
:1005800003239B0C013B1748174A026040F2E732F5
:10059000C2604360002303618360836100F08AF9D5
:1005A000054630B1284609B030BD00F067FA430077
:1005B000E4E70C4800F01EF805460028F2D136208A
:1005C00000F0E8FE0F2C01D90125EBE700222146BF
:1005D000362000F0CFFE054B1C60E3E700380240F8
:1005E00083DE1B4378000020001000400400002040
:1005F0007047000090F83D30DBB2012B37D1022369
:1006000080F83D300268D36843F00103D36003688B
:10061000194A934220D0B3F1804F1DD0A2F57C42FD
:10062000934219D002F58062934215D002F58062A0
:10063000934211D002F5784293420DD002F57052E8
:10064000934209D0A2F59432934205D01A6842F041
:1006500001021A60002070479A6802F00702062A19
:1006600007D01A6842F001021A600020704701208A
:1006700070470020704700BF00000140704770477E
:100680007047704770B504460368DE681D6915F051
:10069000020F10D016F0020F0DD06FF002021A6197
:1006A0000123037703689B6913F0030F5ED0FFF704
:1006B000E6FF0023237715F0040F12D016F0040F85
:1006C0000FD023686FF004021A6102232377236896
:1006D0009B6913F4407F4FD02046FFF7D0FF0023E3
:1006E000237715F0080F12D016F0080F0FD02368EB
:1006F0006FF008021A61042323772368DB6913F083
:10070000030F40D02046FFF7BAFF0023237715F0F0
:10071000100F12D016F0100F0FD023686FF01002D8
:100720001A61082323772368DB6913F4407F31D0F3
:100730002046FFF7A4FF0023237715F0010F02D016
:1007400016F0010F2DD115F0800F02D016F0800F9A
:100750002FD115F0400F02D016F0400F31D115F017
:10076000200F02D016F0200F33D170BDFFF786FFA7
:100770002046FFF785FF9CE72046FFF77FFF2046D6
:10078000FFF77EFFABE72046FFF778FF2046FFF735
:1007900077FFBAE72046FFF771FF2046FFF770FFAB
:1007A000C9E723686FF001021A612046FFF7D0FD08
:1007B000C9E723686FF080021A61204600F0A7F8AD
:1007C000C7E723686FF040021A612046FFF759FF20
:1007D000C5E723686FF020021A61204600F096F802
:1007E000C3E700000368324A904212D0B0F1804F54
:1007F0000FD0A2F57C4290420BD002F5806290426D
:1008000007D002F58062904203D002F57842904210
:1008100003D123F070034A681343254A90422AD03B
:10082000B0F1804F27D0A2F57C42904223D002F550
:10083000806290421FD002F5806290421BD002F588
:100840007842904217D002F57052904213D002F5D0
:10085000806290420FD002F5806290420BD0A2F5E8
:100860009832904207D002F58062904203D002F5A0
:100870008062904203D123F44073CA68134323F08B
:1008800080034A6913438A68C2620A688262084A1E
:10089000904203D002F58062904201D10A6902635E
:1008A000026842F004020260012242610360704764
:1008B0000000014040B310B5044690F83D30F3B15C
:1008C000022384F83D30214651F8040BFFF78AFFDC
:1008D000012384F8463084F83E3084F83F3084F8B1
:1008E000403084F8413084F8423084F8433084F852
:1008F000443084F8453084F83D30002010BD80F845
:100900003C30FFF775FEDBE701207047704770470A
:10091000002800F09B8070B50D4604464F4B1B68C5
:1009200003F00F038B4208D2CBB24C4A137013680A
:1009300003F00F038B4240F08B80236813F0020F0B
:1009400017D013F0040F04D0454A936843F4E053E2
:100950009360236813F0080F04D0414A936843F46E
:10096000604393603E4A936823F0F003A1680B4311
:100970009360236813F0010F32D06368012B21D0FC
:100980009A1E012A25D9364A126812F0020F61D048
:1009900033498A6822F0030213438B6000F024FD80
:1009A00006462F4B9B6803F00C036268B3EB820F83
:1009B00016D000F019FD801B41F288339842F0D91F
:1009C000032042E0264A126812F4003FE0D10120E1
:1009D0003BE0234A126812F0007FD9D1012034E0B5
:1009E0001E4B1B6803F00F03AB4207D9EAB21B4B47
:1009F0001A701B6803F00F03AB422DD1236813F06C
:100A0000040F06D0164A936823F4E053E1680B43C1
:100A10009360236813F0080F07D0114A936823F4FA
:100A20006043216943EAC103936000F065F80C4B11
:100A30009B68C3F303130B4AD35CD8400A4B18607E
:100A40000A4B1868FFF782FD002070BD0120704737
:100A50000120FAE70120F8E70120F6E7003C024018
:100A600000380240F0350008080000200400002093
:100A7000014B1868704700BF0800002008B5FFF759
:100A8000F7FF044B9B68C3F38223034AD35CD8402F
:100A900008BD00BF00380240E835000808B5FFF780
:100AA000E7FF044B9B68C3F34233034AD35CD8404F
:100AB00008BD00BF00380240E83500080F2303607E
:100AC0000B4B9A6802F0030242609A6802F0F0024F
:100AD00082609A6802F4E052C2609B68DB0803F40B
:100AE000E0530361034B1B6803F00F030B60704777
:100AF00000380240003C024008B5604B9B6803F0A0
:100B00000C03082B07D00C2B5FD0042B01D05C48C2
:100B100008BD5C48FCE7594B5A6802F03F025B682D
:100B200013F4800F2CD0554B5868C0F388104FEA4F
:100B3000401CBCEB000C6EEB0E0E4FEA8E1343EA2A
:100B40009C634FEA8C11B1EB0C0163EB0E03DB00ED
:100B500043EA5173C90011EB000C43F10003590241
:100B600000234FEA4C2041EADC51FFF731FB434BB5
:100B70005B68C3F3014301335B00B0FBF3F0C7E7ED
:100B80003E4B5868C0F388104FEA401CBCEB000C89
:100B90006EEB0E0E4FEA8E1343EA9C634FEA8C1104
:100BA000B1EB0C0163EB0E03DB0043EA5173C900A8
:100BB00011EB000C43F10003990200234FEA8C2053
:100BC00041EA9C51FFF704FBD1E72C4B5A6802F035
:100BD0003F025B6813F4800F2AD0284B5868C0F39B
:100BE00088104FEA401CBCEB000C6EEB0E0E4FEA77
:100BF0008E1343EA9C634FEA8C11B1EB0C0163EB5B
:100C00000E03DB0043EA5173C90011EB000C43F102
:100C10000003590200234FEA4C2041EADC51FFF760
:100C2000D7FA164B5B68C3F30273B0FBF3F06FE7C0
:100C3000124B5868C0F388104FEA401CBCEB000C04
:100C40006EEB0E0E4FEA8E1343EA9C634FEA8C1153
:100C5000B1EB0C0163EB0E03DB0043EA5173C900F7
:100C600011EB000C43F10003990200234FEA8C20A2
:100C700041EA9C51FFF7ACFAD3E700BF00380240CD
:100C80000024F40000127A00002800F0018270B500
:100C900082B00446036813F0010F41D0994B9B6862
:100CA00003F00C03042B32D0964B9B6803F00C032B
:100CB000082B27D0934B9B6803F00C030C2B59D0C7
:100CC0006368B3F5803F5BD0B3F5A02F5ED08D4B4A
:100CD0001A6822F480321A601A6822F480221A609C
:100CE0006368002B5CD000F07FFB0546854B1B68DA
:100CF00013F4003F14D100F077FB401B6428F5D9B2
:100D00000320CCE17F4B5B6813F4800FD2D07D4B86
:100D10001B6813F4003F03D06368002B00F0BA8116
:100D2000236813F0020F60D0764B9B6813F00C0F12
:100D30004AD0744B9B6803F00C03082B3FD0714BD7
:100D40009B6803F00C030C2B69D0E368002B75D073
:100D50006D4B01221A6000F047FB0546694B1B688A
:100D600013F0020F61D100F03FFB401B0228F5D9C0
:100D7000032094E1634B5B6813F4800FA0D0C6E7B7
:100D8000604A136843F480331360A9E75D4B1A6827
:100D900042F480221A601A6842F480321A609FE797
:100DA00000F022FB0546574B1B6813F4003FB7D0F9
:100DB00000F01AFB401B6428F5D903206FE1514B6A
:100DC0005B6813F4800FBAD14E4B1B6813F0020F0F
:100DD00003D0E368012B40F05F814A4A136823F097
:100DE000F803216943EAC1031360236813F0080F75
:100DF00049D06369002B33D0434B0122C3F8802EC6
:100E000000F0F2FA05463F4B5B6F13F0020F3AD148
:100E100000F0EAFA401B0228F5D903203FE1394BE4
:100E20005B6813F4800F90D1CEE7364A136823F045
:100E3000F803216943EAC1031360D6E7324B00226D
:100E40001A6000F0D1FA05462E4B1B6813F0020F12
:100E5000CBD000F0C9FA401B0228F5D903201EE1CF
:100E6000294B0022C3F8802E00F0BEFA0546254B20
:100E70005B6F13F0020F06D000F0B6FA401B022899
:100E8000F5D903200BE1236813F0040F76D01D4B36
:100E90001B6C13F0805F33D100230193194B1A6C44
:100EA00042F080521A641B6C03F080530193019B43
:100EB0000125164B1B6813F4807F29D0A368012BF2
:100EC0003AD0052B3ED00F4B1A6F22F001021A6761
:100ED0001A6F22F004021A67A368002B3CD000F0BE
:100EE00083FA0646074B1B6F13F0020F45D100F043
:100EF0007BFA801B41F288339842F3D90320CEE07D
:100F00000025D6E70038024000004742007000404C
:100F10006B4A136843F48073136000F065FA064669
:100F2000674B1B6813F4807FC8D100F05DFA801B0B
:100F30000228F5D90320B2E0624A136F43F001039F
:100F40001367C9E75F4B1A6F42F004021A671A6F02
:100F500042F001021A67BFE700F046FA0646594B15
:100F60001B6F13F0020F08D000F03EFA801B41F215
:100F700088339842F3D9032091E0EDB9A369002B9F
:100F800000F08C804F4A926802F00C02082A54D07C
:100F9000022B17D04C4B00221A6600F025FA0446AB
:100FA000484B1B6813F0007F45D000F01DFA001B72
:100FB0000228F5D9032072E0424A136C23F08053D3
:100FC0001364DBE7404B00221A6600F00DFA054679
:100FD0003C4B1B6813F0007F06D000F005FA401B65
:100FE0000228F5D903205AE0E369226A1343626AB2
:100FF00043EA8213A26A5208013A43EA0243E26AD0
:1010000043EA0263226B43EA02732E4A53602E4B7B
:1010100001221A6600F0E8F904462A4B1B6813F017
:10102000007F06D100F0E0F9001B0228F5D903206B
:1010300035E0002033E0002031E0012B31D0214B9E
:101040005B6803F48001E26991422CD103F03F0216
:10105000216A8A4229D1616A47F6C0721A40B2EB0E
:10106000811F24D103F44031A26A5208013AB1EB46
:10107000024F1ED103F07062E16AB2EB016F1AD128
:1010800003F0E043226BB3EB027F16D1002006E0B1
:1010900001207047012002E0012000E0002002B0A2
:1010A00070BD0120FBE70120F9E70120F7E70120EF
:1010B000F5E70120F3E70120F1E70120EFE700BFAA
:1010C00000700040003802400000474200230F2B10
:1010D00000F2E38070B582B065E085684FEA430EA8
:1010E000032404FA0EF425EA0405CC6804FA0EF48D
:1010F0002C438460446824EA02044A68C2F3001264
:101100009A40224342605CE0DC08083450F8242016
:1011100003F00705AD004FF00F0E0EFA05FE22EAB0
:101120000E0E0A69AA4042EA0E0240F824205CE052
:10113000062200E0002202FA0EF22A430234574D42
:1011400045F82420564A94686FEA0C0224EA0C05FC
:101150004E6816F4801F01D04CEA0405504CA5607F
:10116000E46802EA04054E6816F4001F01D04CEA58
:1011700004054B4CE560646802EA04054E6816F409
:10118000003F01D04CEA0405454C656024682240CC
:101190004D6815F4803F01D04CEA0402404C2260B7
:1011A00001330F2B77D801229A400C6804EA020C15
:1011B00032EA0404F4D14C6804F00304013C012C2D
:1011C0008BD94A6802F00302032A09D0C4685D0083
:1011D0000322AA4024EA02048A68AA402243C26089
:1011E0004A6802F00302022A8ED004684FEA430ED6
:1011F000032202FA0EF224EA02044A6802F0030211
:1012000002FA0EF2224302604A6812F4403FC7D04D
:1012100000220192234A546C44F480445464526C7A
:1012200002F480420192019A9C08A51C1B4A52F8C4
:10123000255003F0030E4FEA8E0E0F2202FA0EF233
:1012400025EA0205184A90423FF474AF02F5806225
:10125000904216D002F58062904214D002F580626E
:10126000904212D002F58062904210D002F5806266
:1012700090420ED002F5806290423FF459AF0722AF
:1012800059E7012257E7022255E7032253E70422D8
:1012900051E705224FE702B070BD704700380140AA
:1012A000003C014000380240000002400AB1816168
:1012B0007047090481617047436901EA030221EA2A
:1012C000030141EA0241816170470000002807DB09
:1012D00000F01F02400901239340024A42F82030E7
:1012E000704700BF00E100E0002808DB0901C9B237
:1012F00000F1604000F5614080F80013704700F095
:101300000F000901C9B2014B1954704714ED00E0F8
:1013100000B500F00700C0F1070CBCF1040F28BFB6
:101320004FF0040C031D062B0FD9C31E4FF0FF3ED8
:101330000EFA0CF021EA000199400EFA03FE22EAAF
:101340000E0241EA02005DF804FB0023EEE7000014
:10135000074AD36823F4E0631B041B0C000200F46B
:10136000E060034343F0BF6343F40033D36070474E
:1013700000ED00E010B50446054BD868C0F302202C
:10138000FFF7C6FF01462046FFF7AEFF10BD00BFC6
:1013900000ED00E008B5FFF799FF08BD08B50B4B5D
:1013A0001A6842F400721A601A6842F480621A6085
:1013B0001A6842F480721A600320FFF7C9FF0F20F9
:1013C000FFF7C4F8FFF768F8002008BD003C0240B2
:1013D000034A1168034B1B780B441360704700BF2E
:1013E000C000002000000020014B1868704700BFBB
:1013F000C000002010B504460268136923F440536E
:10140000C1680B431361836802691A4343691A4335
:10141000C3691A430168CB6823F4164323F00C0315
:101420001343CB600268536923F4407381690B4313
:1014300053610368314A934206D002F580629342B9
:1014400002D0FFF71BFB01E0FFF728FBE369B3F5D0
:10145000004F29D00021031849411B1841F1000118
:10146000C90041EA5371DB00181863684FEA830230
:101470004FEA937341F10001FEF7AAFE204AA2FB56
:1014800000314909642303FB11031B013233A2FB22
:1014900003235B0903F0F00202EB011203F00F03D8
:1014A000216813448B6010BD0023021843EB030135
:1014B000121841F10001C90041EA5271D20010181E
:1014C00041F10001626892185B41FEF781FE0C4A0F
:1014D000A2FB00314909642303FB1103DB00323313
:1014E000A2FB03235B095A0002F4F87202EB01121B
:1014F00003F00703216813448B60D4E70010014018
:101500001F85EB5160B310B5044690F8413013B31A
:10151000242384F841302268D36823F40053D36035
:101520002046FFF767FF2268136923F49043136195
:101530002268536923F02A0353612268D36843F475
:101540000053D36000206064202384F8413084F885
:101550004230606310BD80F84030FEF7BFFFD7E730
:1015600001207047034AD2F8883043F47003C2F870
:101570008830704700ED00E000F1080343604FF051
:10158000FF328260C3600361002303607047002361
:101590000361704743684B609A688A605160996044
:1015A0000861036801330360704730B40D68B5F11A
:1015B000FF3F11D000F108031C465B681A68AA427D
:1015C000FAD963684B6099608C6061600861036858
:1015D0000133036030BC70470469F2E70369416876
:1015E00082688A60416851605A68824206D000224F
:1015F00002611A68013A1A601868704782685A6076
:10160000F5E710B5044601F0B5FCA26BE36B9A4216
:1016100004D0002401F0D0FC204610BD0124F9E7DD
:1016200010B5044601F0A6FCA36B23B9012401F018
:10163000C3FC204610BD0024F9E770B504461546EA
:10164000866B026C5AB903681BB100200136A66391
:1016500070BD806800F0D0FF0023A360F6E76DB98D
:10166000406801F029FE6368226C13446360A2683D
:10167000934219D3236863602846E7E7C06801F006
:101680001BFEE368226C51429B1AE360226893427E
:1016900002D2A3680B44E360022D01D00020D5E7FD
:1016A00026B1013E0020D1E72846CFE70020CDE754
:1016B0000346026C6AB110B50846D9681144D96076
:1016C0009C68A14201D31968D960D96801F0F4FD82
:1016D00010BD704738B5054601F04CFC95F8454003
:1016E00064B201E0013C64B2002C0ADD6B6A43B1D4
:1016F00005F1240000F0D6FE0028F3D000F066FFCC
:10170000F0E7FF2385F8453001F056FC01F032FC8C
:1017100095F8444064B201E0013C64B2002C0ADD5B
:101720002B6943B105F1100000F0BCFE0028F3D096
:1017300000F04CFFF0E7FF2385F8443001F03CFC5B
:1017400038BD38B5E0B10D46044601F013FC2368FE
:10175000E26B216C01FB0230A0600020A06363609B
:10176000013A02FB0133E360FF2384F8443084F83C
:101770004530FDB9236963B901F01EFC012038BD75
:101780004FF0500383F31188BFF36F8FBFF34F8F78
:10179000FEE704F1100000F085FE0028ECD04FF0C9
:1017A000E0234FF08052C3F8042DBFF34F8FBFF3F7
:1017B0006F8FE1E704F11000FFF7DEFE04F1240073
:1017C000FFF7DAFED8E738B51D46049C0B4649B949
:1017D0002460E063236401212046FFF7B2FF84F810
:1017E0004C5038BD2260F4E740B94FF0500383F30A
:1017F0001188BFF36F8FBFF34F8FFEE710B584B032
:101800001C46844653B192B189B94FF0500383F31B
:101810001188BFF36F8FBFF34F8FFEE74FF0500378
:1018200083F31188BFF36F8FBFF34F8FFEE76AB169
:1018300050230393039B502B13D04FF0500383F39B
:101840001188BFF36F8FBFF34F8FFEE70029EFD0F2
:101850004FF0500383F31188BFF36F8FBFF34F8FA7
:10186000FEE7039B012384F8463000949DF818306E
:101870006046FFF7A8FF204604B010BDF0B585B064
:10188000019288B10F461D460446B1B1022D20D108
:10189000E36B012B1DD04FF0500383F31188BFF38E
:1018A0006F8FBFF34F8FFEE74FF0500383F3118824
:1018B000BFF36F8FBFF34F8FFEE7036C002BE5D0B4
:1018C0004FF0500383F31188BFF36F8FBFF34F8F37
:1018D000FEE700F081FE064658B9019B002B48D078
:1018E0004FF0500383F31188BFF36F8FBFF34F8F17
:1018F000FEE700263DE02A4639462046FFF79DFEDA
:10190000636A7BB948B14FF0E0234FF08052C3F8CF
:10191000042DBFF34F8FBFF36F8F01F04DFB0120FC
:1019200005B0F0BD04F1240000F0BCFD0028F4D0A7
:101930004FF0E0234FF08052C3F8042DBFF34F8FD8
:10194000BFF36F8FE9E701F037FB0020E8E702A85B
:1019500000F0EEFD012619E0002384F8443021E078
:10196000002384F8453023E02046FFF7B3FE00F063
:1019700077FC01F0FFFAA26BE36B9A42BBD3022D16
:10198000B9D0019B002BDED0002EE0D001F014FB7B
:1019900000F0CCFB01F0EEFA94F8442052B2B2F120
:1019A000FF3FD9D094F8452052B2B2F1FF3FD7D0D3
:1019B00001F002FB01A902A800F0C6FDD8B920463B
:1019C000FFF71FFE0028CFD0019904F1100000F0AE
:1019D00035FD2046FFF77EFE00F042FC0028C8D10E
:1019E0004FF0E0234FF08052C3F8042DBFF34F8F28
:1019F000BFF36F8FBDE72046FFF76CFE00F030FCB1
:101A000000208DE72DE9F84390B10F4616461C469D
:101A10000546B1B1022C20D1EB6B012B1DD04FF04C
:101A2000500383F31188BFF36F8FBFF34F8FFEE72F
:101A30004FF0500383F31188BFF36F8FBFF34F8FC5
:101A4000FEE7036C002BE5D04FF0500383F31188C1
:101A5000BFF36F8FBFF34F8FFEE701F0B1FBEFF3E2
:101A600011884FF0500383F31188BFF36F8FBFF3DA
:101A70004F8FAA6BEB6B9A4206D3022C04D0002046
:101A800088F31188BDE8F88395F845904FFA89F9F5
:101A9000AB6B224639462846FFF7CFFDB9F1FF3F31
:101AA00006D009F101035BB285F845300120E7E774
:101AB0006B6A0BB90120E3E705F1240000F0F2FCAA
:101AC00018B126B101203060DAE70120D8E7012003
:101AD000D6E7F0B585B0019290B10F460446C1B18A
:101AE00000F07AFD064600BB019B002B5ED04FF054
:101AF000500383F31188BFF36F8FBFF34F8FFEE75F
:101B00004FF0500383F31188BFF36F8FBFF34F8FF4
:101B1000FEE7036C002BE3D04FF0500383F31188F2
:101B2000BFF36F8FBFF34F8FFEE700263EE03946CD
:101B30002046FFF7BDFD013DA563236923B901F0F0
:101B40003BFA012005B0F0BD04F1100000F0AAFC42
:101B50000028F4D04FF0E0234FF08052C3F8042D5A
:101B6000BFF34F8FBFF36F8FE9E701F025FA002035
:101B7000E8E702A800F0DCFC012621E0002384F85D
:101B8000443029E0002384F845302BE02046FFF75D
:101B9000A1FD00F065FB09E02046FFF79BFD00F08A
:101BA0005FFB2046FFF73CFD00283FD101F0E2F942
:101BB000A56B002DBBD1019B002BD6D0002ED8D019
:101BC00001F0FAF900F0B2FA01F0D4F994F84430D7
:101BD0005BB2B3F1FF3FD1D094F845305BB2B3F1C3
:101BE000FF3FCFD001F0E8F901A902A800F0ACFC5A
:101BF0000028D1D12046FFF713FD0028C6D0019957
:101C000004F1240000F01AFC2046FFF763FD00F009
:101C100027FB0028CAD14FF0E0234FF08052C3F8D1
:101C2000042DBFF34F8FBFF36F8FBFE7002089E70D
:101C30000023072B0CD8074A52F833200AB101338E
:101C4000F7E7044A42F8331002EBC30250607047D2
:101C5000704700BFC400002070B504460D4616460C
:101C600001F088F994F844305BB2B3F1FF3F0DD036
:101C700094F845305BB2B3F1FF3F0BD001F09CF913
:101C8000A36B5BB12046FFF725FD70BD002384F8F0
:101C90004430EDE7002384F84530EFE7324629462B
:101CA00004F1240000F0E2FBECE70000084B1B68A5
:101CB0001B6823B9074B4FF0FF321A607047044B83
:101CC0001B68DB68DB685A68024B1A60704700BF0C
:101CD000740100200C0100202DE9F04780460D46DC
:101CE00017469946089EDDF824A00A9C9200A5217B
:101CF000206B01F0EFFA236B07F18042013A03EB0E
:101D0000820727F00707A5B34FF0000CBCF10F0FB7
:101D100009D815F80C3004EB0C0282F8343013B1FA
:101D20000CF1010CF2E7002384F84330372E00D980
:101D30003726E662E66400252565201DFFF727FCAF
:101D400004F11800FFF723FC2461C6F13806A661F0
:101D50006462656584F858504A464146384601F049
:101D6000DDF82060BAF1000F01D0CAF80040BDE8EC
:101D7000F087002384F83430D8E7000038B5002419
:101D800007E004EB840293000E481844FFF7F4FBCD
:101D90000134372CF5D90C4D2846FFF7EDFB0B4CE1
:101DA0002046FFF7E9FB0A48FFF7E6FB0948FFF783
:101DB000E3FB0948FFF7E0FB084B1D60084B1C6084
:101DC00038BD00BFA00100208C0100207801002058
:101DD0005C01002048010020300100207401002037
:101DE0007001002010B5044601F0C4F8224A1368BF
:101DF00001331360214B1B685BB1214B1B686BB92E
:101E00001E4B1B68DA6AE36A9A4207D81B4B1C60B8
:101E100004E01A4B1C601368012B29D0194A13687F
:101E2000013313606364E06A174B1B68984201D961
:101E3000154B186000EB8000211D144B03EB800054
:101E4000FFF7A8FB01F0B8F80D4B1B687BB10B4BFB
:101E50001B68DA6AE36A9A4209D24FF0E0234FF036
:101E60008052C3F8042DBFF34F8FBFF36F8F10BDA7
:101E7000FFF784FFD2E700BF2C01002000060020FE
:101E8000200100201001002024010020A0010020DA
:101E900010B5044690F8593063B1012B11D0022BD4
:101EA0000ED04FF0500383F31188BFF36F8FBFF351
:101EB0004F8FFEE7006B00F0B5FF204600F0B2FF49
:101EC00010BD00F0AFFFFBE70F4B1B68D3B110B59F
:101ED00001F050F80D4BDB68DC68201DFFF77EFB3E
:101EE0000B4A1368013B1360074A1368013B1360F8
:101EF00001F062F82046FFF7CBFF034B1B68002B75
:101F0000E6D110BD704700BF440100204801002009
:101F10002C01002008B5FFF7D7FF074B1B68012BEA
:101F2000F9D94FF0E0234FF08052C3F8042DBFF3EE
:101F30004F8FBFF36F8FEEE7A001002070B504460E
:101F40000D46174B1E68174B18680430FFF746FB09
:101F5000B4F1FF3F0DD03444124B1B685C60A642C5
:101F600010D9114B18680F4B19680431FFF71DFB8E
:101F700070BD002DEFD00B4B196804310B48FFF7F3
:101F800009FBF5E70A4B1868064B19680431FFF79F
:101F90000CFB084B1B68A342EAD9064B1C60E7E721
:101FA00028010020000600207001002030010020E0
:101FB000740100200C01002030B587B00B9C7CB16F
:101FC0000C9DB5B15C250495049D5C2D1AD04FF095
:101FD000500383F31188BFF36F8FBFF34F8FFEE77A
:101FE0004FF0500383F31188BFF36F8FBFF34F8F10
:101FF000FEE74FF0500383F31188BFF36F8FBFF3F9
:102000004F8FFEE7049D0C9D2C63022485F85940F8
:1020100000240394029505AC01940A9C0094FFF7F8
:102020005BFE0C98FFF7DEFE059807B030BD2DE98A
:10203000F04385B00746884614461E46900000F0DF
:102040006FFE08B381465C2000F06AFE0546A8B129
:10205000C0F83090002380F85930039302900D9B14
:1020600001930C9B00933346224641463846FFF7C6
:1020700033FE2846FFF7B6FE012007E0484600F091
:10208000D1FE4FF0FF3001E04FF0FF3005B0BDE86A
:10209000F083000010B588B000240594069407AAC8
:1020A00006A905A800F0C0FD059B0293069B0193BD
:1020B00000942346079A17491748FFF77DFF174BEF
:1020C0001860C0B100F04CFB012815D14FF050034F
:1020D00083F31188BFF36F8FBFF34F8F104B4FF017
:1020E000FF321A600F4B01221A600F4B00221A6058
:1020F00000F0DAFF03E00020B0F1FF3F01D008B0AC
:1021000010BD4FF0500383F31188BFF36F8FBFF3FF
:102110004F8FFEE700360008151F00080801002059
:102120000C0100202001002028010020024A136831
:1021300001331360704700BF04010020014B186891
:10214000704700BF28010020F8B53A4B1B68002BF0
:1021500069D1394B1D6801351D60C5B9374B1B6806
:102160001B6843B14FF0500383F31188BFF36F8FA7
:10217000BFF34F8FFEE7314A1168314B186810608A
:102180001960304A136801331360FFF78FFD2E4B3F
:102190001B68AB423DD900272C4B1B68DB6A03EB65
:1021A00083039A002A4B9B58012B00D90127294B06
:1021B0001B68002B3CD001273AE001271F4B1B680E
:1021C0001B6843B31D4B1B68DB68DC6863689D427A
:1021D00026D3261D3046FFF701FAA36A1BB104F18E
:1021E0001800FFF7FBF9E36A1B4A1268934201D912
:1021F000194A136003EB83039A00314614481044D4
:10220000FFF7C8F9E26A114B1B68DB6A9A42D4D225
:10221000D4E70027D2E70C4B4FF0FF321A60BBE740
:10222000094A1360B8E70D4A1368013313600027A9
:102230003846F8BD04010020280100207401002068
:1022400070010020140100200C0100200006002075
:10225000A001002018010020240100201C01002002
:1022600038B5354B1B6843B94FF0500383F31188E1
:10227000BFF36F8FBFF34F8FFEE700F07BFE2E4B57
:102280001A68013A1A601B68002B4FD12B4B1B6850
:102290000BB900244BE00024294B1B681BB3284BCF
:1022A000DB68DC6804F11800FFF798F9251D284663
:1022B000FFF794F9E06A234B1B68984201D9214B40
:1022C000186000EB800029461F4B03EB8000FFF7EE
:1022D00061F9E26A1D4B1B68DB6A9A42DCD31C4B36
:1022E00001221A60D8E70CB1FFF7E0FC194B1C681B
:1022F00084B9174B1C68D4B14FF0E0234FF08052E3
:10230000C3F8042DBFF34F8FBFF36F8F01240EE08E
:10231000013C07D0FFF718FF0028F9D00C4B012231
:102320001A60F5E70B4B00221A60E2E7002400F088
:1023300043FE204638BD00BF040100202C010020D0
:102340005C01002024010020A001002000060020E4
:10235000180100201C01002010B5A8B10446104B44
:102360001B6843B14FF0500383F31188BFF36F8FA5
:10237000BFF34F8FFEE7FFF7D9FE00212046FFF79E
:10238000DDFDFFF76DFF48B94FF0E0234FF08052BD
:10239000C3F8042DBFF34F8FBFF36F8F10BD00BF85
:1023A00004010020204B1B681BB1204B01221A6046
:1023B00070471E4B00221A601D4B1B6803EB830104
:1023C0008A001C498A585AB90BB1013BF6E74FF015
:1023D000500383F31188BFF36F8FBFF34F8FFEE776
:1023E000084603EB83018A00024451684968516042
:1023F00003EB830C4FEA8C020832024491420BD06B
:1024000003EB830291000B4A0A445268D1680A4ADE
:102410001160074A13607047486862469100054A98
:102420000A445060ECE700BF0401002018010020BE
:1024300024010020A00100200006002058B110B5A2
:102440000C46094A11681831FFF7AFF80121204600
:10245000FFF774FD10BD4FF0500383F31188BFF3F5
:102460006F8FBFF34F8FFEE70006002038B570B1C5
:102470000D4614460A4A11681831FFF78BF80CB163
:102480004FF0FF3521462846FFF758FD38BD4FF085
:10249000500383F31188BFF36F8FBFF34F8FFEE7B5
:1024A0000006002038B5C368DC6824B304F11805C1
:1024B0002846FFF793F8184B1B682BBB251D2846B1
:1024C000FFF78CF8E06A154B1B68984201D9134B53
:1024D000186000EB80002946114B03EB8000FFF7EA
:1024E00059F8E26A0F4B1B68DB6A9A4211D9012046
:1024F0000D4B186038BD4FF0500383F31188BFF3C4
:102500006F8FBFF34F8FFEE729460848FFF742F869
:10251000E7E70020EEE700BF0401002024010020CF
:10252000A001002000060020180100205C0100200E
:10253000034B1B680360034B1B684360704700BF7D
:102540001401002028010020F8B5C8B10C4605464A
:10255000F9B100F00FFD1B4B19686B68C81A2268AF
:10256000B2F1FF3F26D0184E36682F68B74201D02F
:102570008B4224D9824215D80023236001241AE01B
:102580004FF0500383F31188BFF36F8FBFF34F8F6A
:10259000FEE74FF0500383F31188BFF36F8FBFF353
:1025A0004F8FFEE75B1A134423602846FFF7C0FFF6
:1025B000002400E0002400F0FFFC2046F8BD0124C8
:1025C000F9E700BF2801002014010020014B01227F
:1025D0001A60704718010020054B1B6833B1054B8A
:1025E0001B680BB100207047022070470120704724
:1025F000200100200401002000283BD038B504460B
:102600001E4B1B68834208D04FF0500383F31188A0
:10261000BFF36F8FBFF34F8FFEE7036D43B94FF0EA
:10262000500383F31188BFF36F8FBFF34F8FFEE723
:10263000013B0365C16AC26C91421DD00BB1002001
:1026400038BD051D2846FEF7C9FFE06CE062C0F109
:102650003803A3610A4B1B68984201D9084B1860E4
:1026600000EB80002946074B03EB8000FEF792FF4A
:102670000120E5E7002070470020E1E70006002088
:1026800024010020A0010020064B1A6813682BB912
:102690000123036023B9D368186870470023F8E763
:1026A000002070470407002008B541600061914296
:1026B0000CD8D21A83699A4201D3012008BD011DAA
:1026C000094B1868FEF771FF0020F7E79A4201D224
:1026D000994206D2011D054B1868FEF766FF0020DF
:1026E000ECE70120EAE700BF000700200407002014
:1026F00030B583B000F03EFC114B1B681BB100F0FD
:102700005BFC03B030BD0F4D2846FEF735FF0E4C85
:102710002046FEF731FF0D4B1D600D4B1C60002362
:1027200000930C4B0C4A10210A20FFF75DF8044B74
:1027300018600028E3D00949FFF77AFADFE700BF05
:10274000FC0600201C0700200807002004070020CA
:102750000007002004060020540600200836000868
:1027600010B588B0FFF7C4FF124B1B68CBB1002433
:102770000594069407AA06A905A800F061FA059B2E
:102780000293069B0193022300932346079A0A496A
:102790000A48FFF711FC0A4B186010B1012008B07D
:1027A00010BD4FF0500383F31188BFF36F8FBFF359
:1027B0004F8FFEE7FC06002010360008C52A0008EF
:1027C000F8060020B8B19C4603461848006858B384
:1027D00000B585B000910192029305291CDCFFF73A
:1027E000FBFE022810D000231A4669460F480068F5
:1027F000FFF744F815E04FF0500383F31188BFF35F
:102800006F8FBFF34F8FFEE70023069A6946074894
:102810000068FFF733F804E0002362466946FFF7DB
:10282000F1F805B05DF804FB00207047FC060020BD
:1028300070B582B01B4B1B681A6862B3DB681E68F8
:10284000DC68251D2846FEF7C9FE236A2046984706
:1028500094F8283013F0040FECD0A36933449E425F
:1028600007D26360246129460E4B1868FEF79DFE6F
:10287000E0E7002100910B4632462046FFF7A2FF19
:102880000028D7D14FF0500383F31188BFF36F8F27
:10289000BFF34F8FFEE7044A1068024908601360D7
:1028A00002B070BD040700200007002038B50546BF
:1028B000FFF744FC0446074B1B68834205D80023FE
:1028C0002B60044B1C60204638BDFFF7B1FF01238D
:1028D0002B60F6E7F406002070B582B006460D4680
:1028E00017490968C968CC68201DFEF777FE94F87F
:1028F00028C01CF0040F08D12CF0010C84F828C06B
:10290000236A2046984702B070BDA16933462A4623
:1029100031442046FFF7C8FE0028F1D00021009185
:102920000B4632462046FFF74DFF0028E8D14FF016
:10293000500383F31188BFF36F8FBFF34F8FFEE710
:102940000407002070B582B006460C46FFF7EEFB88
:1029500001A8FFF7ABFF019B33BB0546E4B9B042CA
:1029600013D22246711B124B1868FFF775F9FFF757
:1029700077FCD8B94FF0E0234FF08052C3F8042D14
:10298000BFF34F8FBFF36F8F10E0FFF769FC29464D
:102990003046FFF7A1FF09E0064A126812680AB93B
:1029A0000124DEE71C46DCE7FFF75AFC02B070BDED
:1029B000FC0600200007002010B588B002E0049B50
:1029C000002B0FDA002204A93D4B1868FFF781F8AD
:1029D000002873D0049B002BF1DA07990698059B19
:1029E0009847ECE7069C636913B1201DFEF7F6FDDE
:1029F00003A8FFF75BFF049B092BE3D8DFE803F094
:102A00000505053037500505303794F8283043F078
:102A1000010384F82830059BA16902461944204629
:102A2000FFF742FE0028CDD0236A2046984794F84D
:102A3000283013F0040FC5D0A269002100910B4685
:102A4000059802442046FFF7BDFE0028BAD14FF09A
:102A5000500383F31188BFF36F8FBFF34F8FFEE7EF
:102A600094F8283023F0010384F82830AAE794F87A
:102A7000283043F0010384F828300599A16131B171
:102A80000346024601442046FFF70EFE9AE74FF048
:102A9000500383F31188BFF36F8FBFF34F8FFEE7AF
:102AA00094F8283013F0020F04D023F0010384F8C7
:102AB000283087E7204600F0B5F983E708B010BD5D
:102AC000FC06002000B583B001A8FFF7DDFD0199E9
:102AD000FFF738FFFFF770FFF6E708B54FF0E02388
:102AE0001B69FFF779FD012800D108BD00F0B2FA9B
:102AF000FBE70000EFF305832BB9064B186828B9F4
:102B000001221A6070476FF0050070474FF0FF30E8
:102B1000704700BFE80D0020EFF3058373B90A4B3F
:102B20001B68012B0DD110B50024084BDC77064B38
:102B300002221A60FFF7AEFA204610BD6FF00500C2
:102B400070474FF0FF307047E80D002000ED00E0C7
:102B5000F0B587B000240594EFF3058474BB68B327
:102B600022B31568936903B918235C1E372C49D822
:102B7000546814F0010F47D156696EB14FEA960CB4
:102B800094682CB1D7685B2F02D9176907B1C6B911
:102B90002CB14FF0FF340EE04FF0800CF0E7D4681A
:102BA0008CB9146994B14FF0FF3404E01546002449
:102BB00018234FF0800C012C0AD0ACB1059807B057
:102BC000F0BD0124F7E74FF0FF34F4E70024F2E70B
:102BD000146992680292019400930B46624629465A
:102BE000FFF7EAF90590E9E705AA019200930B4681
:102BF0001FFA8CF22946FFF71AFA0128DED00023CB
:102C00000593DBE70020DAE70020D8E708B5EFF30B
:102C1000058333B908B9002008BDFFF79DFB0020EC
:102C2000FAE76FF00500F7E7034B0360034B0B6017
:102C300080231360704700BF8C0D00208C0B002098
:102C4000034B0360034B0B604FF4807313607047BA
:102C5000300B002030070020124A12F0070F1ED060
:102C6000D11D21F00701C1F5705313440A460E48E7
:102C70000260002141601344083B23F007030B4826
:102C8000036059601960991A51601360084B19600C
:102C9000084B1960084B4FF000421A6070474FF420
:102CA0007053E4E70C0E0020040E0020000E0020FC
:102CB000F80D0020FC0D0020EC0D0020164B1A46EC
:102CC0001B688342FBD3516802EB010C844509D099
:102CD000416800EB010C634509D00360904219D0B4
:102CE000106070474068014451601046F0E710B42E
:102CF0000A4C2468A3420BD05B68194441601368F6
:102D00001B680360904200D010605DF8044B704770
:102D10000460F7E7704700BF040E0020000E00209B
:102D200038B50446FFF702FA384B1B68B3B1384B8D
:102D30001B681C4250D1002C50D004F1080214F042
:102D4000070F02D022F007020832002A55D0314B7B
:102D50001B68934253D330490C6804E0FFF77CFFB3
:102D6000E5E721461C466368934202D22368002BA4
:102D7000F7D1264B1B68A34243D00D680835236862
:102D80000B6063689B1A102B10D9A01810F0070F66
:102D900008D04FF0500383F31188BFF36F8FBFF358
:102DA0004F8FFEE743606260FFF788FF6268194952
:102DB0000B689B1A0B60194909688B4201D21749AD
:102DC0000B60134B1B681343636000232360144A9A
:102DD00013680133136002E0002500E00025FFF7CF
:102DE0003FFA15F0070F0ED04FF0500383F3118810
:102DF000BFF36F8FBFF34F8FFEE70025EFE700258E
:102E0000EDE70025EBE7284638BD00BF000E0020A7
:102E1000EC0D0020FC0D0020040E0020F80D002019
:102E2000F40D0020002834D038B50446A0F1080580
:102E300050F8043C174A1268134208D14FF050036F
:102E400083F31188BFF36F8FBFF34F8FFEE750F806
:102E5000081C41B14FF0500383F31188BFF36F8F0B
:102E6000BFF34F8FFEE723EA020340F8043CFFF76D
:102E70005DF954F8041C084A13680B441360284693
:102E8000FFF71CFF054A136801331360FFF7E8F9E9
:102E900038BD7047EC0D0020FC0D0020F00D002027
:102EA00082B0002301930D4B1B68B3F1FF3F08D0A4
:102EB0004FF0500383F31188BFF36F8FBFF34F8F31
:102EC000FEE74FF0500383F31188BFF36F8FBFF31A
:102ED0004F8F019B002BFCD002B070470C000020EC
:102EE00008480068006880F308884FF0000080F30D
:102EF000148862B661B6BFF34F8FBFF36F8F00DFE8
:102F000000BF000008ED00E0DFF80C00016841F4AC
:102F1000700101607047000088ED00E04FF08073A1
:102F200040F8043C21F0010140F8081C054B40F832
:102F30000C3C40F8202C6FF0020340F8243C44384D
:102F4000704700BFA12E0008000000000000000034
:102F5000074B19680868B0E8F04F80F30988BFF3A1
:102F60006F8F4FF0000080F311887047AFF300803F
:102F7000000600204FF0500383F31188BFF36F8FDA
:102F8000BFF34F8F0B4A136801331360012B00D03E
:102F900070474FF0E023D3F8043D13F0FF0FF7D054
:102FA0004FF0500383F31188BFF36F8FBFF34F8F40
:102FB000FEE700BF0C000020094B1B6843B94FF02F
:102FC000500383F31188BFF36F8FBFF34F8FFEE77A
:102FD000013B034A13600BB983F31188704700BFAC
:102FE0000C000020000000000000000000000000B5
:102FF000EFF30980BFF36F8F154B1A681EF0100FA7
:1030000008BF20ED108A20E9F04F10602DE909007B
:103010004FF0500080F31188BFF34F8FBFF36F8FD5
:10302000FFF7C0F94FF0000080F3118809BC196860
:103030000868B0E8F04F1EF0100F08BFB0EC108A1F
:1030400080F30988BFF36F8F704700BFAFF3008034
:103050000006002008B54FF0500383F31188BFF33A
:103060006F8FBFF34F8FFFF76FF828B14FF0E0235A
:103070004FF08052C3F8042D002383F3118808BD5C
:103080004FF0E022002313619361054B1B68054953
:10309000A1FB03139B09013B536107231361704795
:1030A00008000020D34D62104FF0E023D3F8002D2C
:1030B0003D4B9A421CD04FF0E023D3F8002D3B4B00
:1030C0009A421ED030B583B0394B1A78D2B20192F1
:1030D000FF221A701B78DBB28DF803309DF80330A5
:1030E00003F05003334A1370334B07221A601BE07E
:1030F0004FF0500383F31188BFF36F8FBFF34F8FEF
:10310000FEE74FF0500383F31188BFF36F8FBFF3D7
:103110004F8FFEE7284A1368013B13609DF8033088
:103120005B00DBB28DF803309DF8033013F0800FA5
:10313000F0D1214B1B68032B08D04FF0500383F3D1
:103140001188BFF36F8FBFF34F8FFEE71B021A4A40
:10315000136003F4E0631360019BDBB2144A137045
:103160004FF0E024D4F8203D43F47003C4F8203D30
:10317000D4F8203D43F07043C4F8203DFFF780FFB2
:1031800000250E4B1D60FFF7BFFED4F8343F43F01F
:103190004043C4F8343FFFF7A3FEFFF703F9FFF7FE
:1031A0007FFE284603B030BD71C20F4170C20F418F
:1031B00000E400E0104A00200C4A00200C0000202F
:1031C000EFF305830F2B0FD9114A9B5CDBB2114A39
:1031D00012789A4208D94FF0500383F31188BFF355
:1031E0006F8FBFF34F8FFEE74FF0E023D3F80C3D16
:1031F00003F4E063084A1268934208D94FF0500381
:1032000083F31188BFF36F8FBFF34F8FFEE77047D3
:10321000F0E300E0104A00200C4A0020DFF834D030
:10322000FEF7A0F90C480D490D4A002302E0D458DE
:10323000C4500433C4188C42F9D30A4A0A4C002300
:1032400001E013600432A242FBD300F011F8FDF755
:10325000F9F8704700000220000000201000002054
:103260002836000810000020144A0020FEE7000065
:1032700070B50D4D0D4C641BA4100026A64209D15B
:103280000B4D0C4C00F08CF9641BA4100026A642D8
:1032900005D170BD55F8043B98470136EEE755F867
:1032A000043B98470136F2E7203600082036000834
:1032B00020360008243600080A44914200F1FF330A
:1032C00000D1704710B511F8014B03F8014F91423E
:1032D000F9D110BD02440346934200D1704703F870
:1032E000011BF9E72DE9F047089D0C46002B4ED154
:1032F00094468C458646B2FA82F262D94AB1C2F14E
:103300002003914020FA03F30CFA02FC194300FA5F
:1033100002FE4FEA1C471FFA8CF6B1FBF7F44FEAA6
:103320001E4307FB141143EA014304FB06F19942D3
:103330000AD91CEB030304F1FF3080F0128199429B
:1033400040F20F81023C6344591A1FFA8EF3B1FB1D
:10335000F7F007FB101143EA014300FB06F69E421B
:103360000AD91CEB030300F1FF3180F0FC809E4280
:1033700040F2F980634402389B1B40EA044000217C
:103380001DB1D3400022C5E90032BDE8F0878B4271
:1033900005D90DB1C5E9000100210846F5E7B3FAEA
:1033A00083F1002946D1A34202D39042C0F0F080BD
:1033B000861A64EB03030120002DE6D0C5E9006303
:1033C000E3E7002A40F09080A1EB0C044FEA1C4890
:1033D0001FFA8CF70121B4FBF8F64FEA1E4308FBF5
:1033E000164443EA044307FB06F0984208D91CEB55
:1033F000030306F1FF3402D2984200F2CD80264644
:103400001C1A1FFA8EF3B4FBF8F008FB104443EAD1
:10341000044300FB07F79F4208D91CEB030300F1AC
:10342000FF3402D29F4200F2B0802046DB1B40EA0C
:103430000640A5E7C1F120068B4022FA06F71F439C
:1034400020FA06FC04FA01F343EA0C03F44000FA04
:1034500001F8380C4FEA1349B4FBF0FE1FFA87FC61
:1034600000FB1E4449EA04440EFB0CF9A14502FA94
:1034700001F20AD93C190EF1FF3A80F08480A1458F
:1034800040F28180AEF1020E3C44A4EB09041FFA25
:1034900083F9B4FBF0F300FB134449EA044403FB53
:1034A0000CFCA44507D93C1903F1FF3067D2A445B1
:1034B00065D9023B3C4443EA0E40A0FB0293A4EBD7
:1034C0000C049C42CE469C4651D34ED055B1B8EB2D
:1034D0000E0364EB0C0404FA06F6CB401E43CC400A
:1034E000C5E90064002150E7C2F1200320FA03F18E
:1034F0000CFA02FC24FA03F394400C434FEA1C48F4
:1035000000FA02FE1FFA8CF7B3FBF8F008FB10314B
:10351000230C43EA014300FB07F1994208D91CEB55
:10352000030300F1FF362CD299422AD902386344B2
:103530005B1AA4B2B3FBF8F108FB113344EA03446D
:1035400001FB07F3A34208D91CEB040401F1FF3689
:1035500013D2A34211D902396444E41A41EA00416A
:1035600039E70446F0E6084606E7C845AED2B9EBAF
:10357000020E63EB070C0138A8E73146EDE703467E
:1035800099E73046D4E7D6467FE7634402384DE7F3
:103590000646234608460FE7023E634430E700BF75
:1035A000F8B500BFF8BC08BC9E467047F8B500BF30
:0835B000F8BC08BC9E46704700
:1035B80064656661756C745461736B00B835000896
:1035C80000000000000000000000000000000000F3
:1035D80000020000180000000000000000000000C9
:1035E80000000000010203040000000000000000C9
:1035F800010203040607080949444C45000000007D
:10360800546D725100000000546D722053766300AF
:08361800CCFCFF7F0100000063
:043620006D0200082F
:043624004502000853
:1036280001000000100000000024F400AAAAAAAAC1
:040000050800321DA0
:00000001FF
